:020000040800F2
:1000000000500020B92F0008C52A0008C72A0008A0
:10001000C92A0008CB2A0008CD2A000800000000E9
:10002000000000000000000000000000CF2A0008CF
:10003000D12A000800000000D32A0008D52A0008B1
:1000400001300008013000080130000801300008CC
:1000500001300008013000080130000801300008BC
:1000600001300008013000080130000801300008AC
:10007000013000080130000801300008013000089C
:10008000013000080130000801300008013000088C
:10009000013000080130000801300008013000087C
:1000A000013000080130000801300008013000086C
:1000B000DD2A0008ED2A00080130000801300008A0
:1000C000013000080130000801300008013000084C
:1000D000013000080130000801300008013000083C
:1000E0000130000801300008013000080000000065
:1000F0000000000000000000000000000000000000
:0C01000000000000000000005FF808F1A3
:1001100081F0004102E000BF83F0004330B54FEAB8
:1001200041044FEA430594EA050F08BF90EA020F25
:100130001FBF54EA000C55EA020C7FEA645C7FEAB8
:10014000655C00F0E2804FEA5454D4EB5555B8BFDB
:100150006D420CDD2C4480EA020281EA030382EA4C
:10016000000083EA010180EA020281EA0303362DDE
:1001700088BF30BD11F0004F4FEA01314FF4801CB1
:100180004CEA113102D0404261EB410113F0004FC3
:100190004FEA03334CEA133302D0524263EB43037A
:1001A00094EA050F00F0A780A4F10104D5F1200E18
:1001B0000DDB02FA0EFC22FA05F2801841F1000173
:1001C00003FA0EF2801843FA05F359410EE0A5F147
:1001D00020050EF1200E012A03FA0EFC28BF4CF078
:1001E000020C43FA05F3C01851EBE37101F000452E
:1001F00007D54FF0000EDCF1000C7EEB00006EEB3B
:100200000101B1F5801F1BD3B1F5001F0CD34908C4
:100210005FEA30004FEA3C0C04F101044FEA44521B
:1002200012F5800F80F09A80BCF1004F08BF5FEAA2
:10023000500C50F1000041EB045141EA050130BD82
:100240005FEA4C0C404141EB0101013C28BFB1F594
:10025000801FE9D291F0000F04BF01460020B1FADF
:1002600081F308BF2033A3F10B03B3F120020CDAB2
:100270000C3208DD02F1140CC2F10C0201FA0CF090
:1002800021FA02F10CE002F11402D8BFC2F1200CF5
:1002900001FA02F120FA0CFCDCBF41EA0C019040AB
:1002A000E41AA2BF01EB0451294330BD6FEA0404F4
:1002B0001F3C1CDA0C340EDC04F11404C4F12002DF
:1002C00020FA04F001FA02F340EA030021FA04F3F1
:1002D00045EA030130BDC4F10C04C4F1200220FA48
:1002E00002F001FA04F340EA0300294630BD21FA86
:1002F00004F0294630BD94F0000F83F4801306BF4C
:1003000081F480110134013D4EE77FEA645C18BF3F
:100310007FEA655C29D094EA050F08BF90EA020FD6
:1003200005D054EA000C04BF1946104630BD91EACE
:10033000030F1EBF0021002030BD5FEA545C05D1D1
:100340004000494128BF41F0004130BD14F5800410
:100350003CBF01F5801130BD01F0004545F0FE4184
:1003600041F470014FF0000030BD7FEA645C1ABFB9
:10037000194610467FEA655C1CBF0B46024650EAF0
:10038000013406BF52EA033591EA030F41F400211C
:1003900030BD00BF90F0000F04BF0021704730B5A2
:1003A0004FF4806404F132044FF000054FF0000177
:1003B00050E700BF90F0000F04BF0021704730B538
:1003C0004FF4806404F1320410F0004548BF40420D
:1003D0004FF000013EE700BF42004FEAE2014FEA62
:1003E00031014FEA02701FBF12F07F4393F07F4F3D
:1003F00081F06051704732F07F4208BF704793F040
:100400007F4F04BF41F40021704730B54FF4607452
:1004100001F0004521F000411CE700BF50EA010255
:1004200008BF704730B54FF000050AE050EA0102FE
:1004300008BF704730B511F0004502D5404261EB6E
:1004400041014FF4806404F132045FEA915C3FF4AF
:10045000D8AE4FF003025FEADC0C18BF03325FEA4C
:10046000DC0C18BF033202EBDC02C2F1200300FAFD
:1004700003FC20FA02F001FA03FE40EA0E0021FA22
:1004800002F11444BDE600BF4A0011D212F5001279
:1004900011D20DD56FF47873B3EB62520ED44FEADC
:1004A000C12343F0004343EA505323FA02F070475C
:1004B0004FF00000704750EA013002D14FF0FF309A
:1004C00070474FF000007047844641EA000313F084
:1004D000030349D1403A23D30B6803604B68436060
:1004E0008B688360CB68C3600B6903614B694361B0
:1004F0008B698361CB69C3610B6A03624B6A436298
:100500008B6A8362CB6AC3620B6B03634B6B43637F
:100510008B6B8363CB6BC36340304031403ADBD29B
:1005200030320BD30B6803604B6843608B68836089
:10053000CB68C36010301031103AF3D20C3205D3BF
:1005400051F8043B40F8043B043AF9D2043208D095
:10055000D2071CBF11F8013B00F8013B01D30B8807
:1005600003806046704700BF082A13D38B07B1D0C1
:1005700010F00303AED0C3F10403D21ADB071CBF93
:1005800011F8013B00F8013BA4D331F8023B20F8FD
:10059000023B9FE7043AD9D3013A11F8013B00F836
:1005A000013BF9D20B7803704B7843708B788370E2
:1005B0006046704770B54FF0FF0C4CF4E06C1CEADD
:1005C00011541DBF1CEA135594EA0C0F95EA0C0F49
:1005D00000F0DEF82C4481EA030621EA4C5123EABC
:1005E0004C5350EA013518BF52EA033541F48011EB
:1005F00043F4801338D0A0FB02CE4FF00005E1FB9E
:1006000002E506F00042E0FB03E54FF00006E1FBE7
:1006100003569CF0000F18BF4EF0010EA4F1FF042A
:10062000B6F5007F64F5407404D25FEA4E0E6D416A
:1006300046EB060642EAC62141EA55514FEAC5207B
:1006400040EA5E504FEACE2EB4F1FD0C88BFBCF5F7
:10065000E06F1ED8BEF1004F08BF5FEA500E50F1A8
:10066000000041EB045170BD06F0004646EA01016E
:1006700040EA020081EA0301B4EB5C04C2BFD4EBA0
:100680000C0541EA045170BD41F480114FF0000E99
:10069000013C00F3AB8014F1360FDEBF002001F007
:1006A000004170BDC4F10004203C35DA0C341BDC81
:1006B00004F11404C4F1200500FA05F320FA04F053
:1006C00001FA05F240EA020001F0004221F0004187
:1006D00010EBD37021FA04F642EB06015EEA430EFA
:1006E00008BF20EAD37070BDC4F10C04C4F120052A
:1006F00000FA04F320FA05F001FA04F240EA0200DD
:1007000001F0004110EBD37041F100015EEA430EAD
:1007100008BF20EAD37070BDC4F1200500FA05F2CD
:100720004EEA020E20FA04F301FA05F243EA02034C
:1007300021FA04F001F0004121FA04F220EA02005B
:1007400000EBD3705EEA430E08BF20EAD37070BDA1
:1007500094F0000F0FD101F00046400041EB010181
:1007600011F4801F08BF013CF7D041EA060195F063
:10077000000F18BF704703F00046520043EB03031D
:1007800013F4801F08BF013DF7D043EA060370470A
:1007900094EA0C0F0CEA135518BF95EA0C0F0CD015
:1007A00050EA410618BF52EA4306D1D181EA03015B
:1007B00001F000414FF0000070BD50EA410606BF55
:1007C0001046194652EA430619D094EA0C0F02D19A
:1007D00050EA013613D195EA0C0F05D152EA0336DF
:1007E0001CBF104619460AD181EA030101F00041FD
:1007F00041F0FE4141F470014FF0000070BD41F046
:10080000FE4141F4780170BD70B54FF0FF0C4CF41F
:10081000E06C1CEA11541DBF1CEA135594EA0C0F3E
:1008200095EA0C0F00F0A7F8A4EB050481EA030E8B
:1008300052EA03354FEA013100F088804FEA033372
:100840004FF0805545EA131343EA12634FEA022240
:1008500045EA111545EA10654FEA00260EF0004101
:100860009D4208BF964244F1FD0404F5407402D253
:100870005B084FEA3202B61A65EB03055B084FEAE4
:1008800032024FF480104FF4002CB6EB020E75EBE1
:10089000030E22BFB61A754640EA0C005B084FEA09
:1008A0003202B6EB020E75EB030E22BFB61A754686
:1008B00040EA5C005B084FEA3202B6EB020E75EBD1
:1008C000030E22BFB61A754640EA9C005B084FEA49
:1008D0003202B6EB020E75EB030E22BFB61A754656
:1008E00040EADC0055EA060E18D04FEA051545EA45
:1008F00016754FEA06164FEAC30343EA52734FEAEE
:10090000C2025FEA1C1CC0D111F4801F0BD141EA66
:1009100000014FF000004FF0004CB6E711F4801FCB
:1009200004BF01430020B4F1FD0C88BFBCF5E06FAB
:100930003FF6AFAEB5EB030C04BFB6EB020C5FEABB
:10094000500C50F1000041EB045170BD0EF0004E10
:100950004EEA113114EB5C04C2BFD4EB0C0541EA42
:10096000045170BD41F480114FF0000E013C90E63F
:1009700045EA060E8DE60CEA135594EA0C0F08BF03
:1009800095EA0C0F3FF43BAF94EA0C0F0AD150EA02
:1009900001347FF434AF95EA0C0F7FF425AF104695
:1009A00019462CE795EA0C0F06D152EA03353FF4BD
:1009B000FDAE1046194622E750EA410618BF52EA3A
:1009C00043067FF4C5AE50EA41047FF40DAF52EA0E
:1009D00043057FF4EBAE12E74FF0FF3C06E000BFAB
:1009E0004FF0010C02E000BF4FF0010C4DF804CDB8
:1009F0004FEA410C7FEA6C5C4FEA430C18BF7FEA78
:100A00006C5C1BD001B050EA410C0CBF52EA430CA5
:100A100091EA030F02BF90EA020F0020704710F125
:100A2000000F91EA030F58BF994208BF90422CBFB4
:100A3000D8176FEAE37040F0010070474FEA410CAD
:100A40007FEA6C5C02D150EA013C07D14FEA430CCB
:100A50007FEA6C5CD6D152EA033CD3D05DF8040B3C
:100A6000704700BF8446104662468C46194663466E
:100A700000E000BF01B5FFF7B7FF002848BF10F145
:100A8000000F01BD4DF808EDFFF7F4FF0CBF01208A
:100A900000205DF808FB00BF4DF808EDFFF7EAFF06
:100AA00034BF012000205DF808FB00BF4DF808EDC1
:100AB000FFF7E0FF94BF012000205DF808FB00BFB6
:100AC0004DF808EDFFF7CEFF94BF012000205DF840
:100AD00008FB00BF4DF808EDFFF7C4FF34BF01204D
:100AE00000205DF808FB00BF4FEA410C7FEA6C5C18
:100AF00002D150EA013C0AD14FEA430C7FEA6C5C18
:100B000002D152EA033C02D14FF0000070474FF08F
:100B1000010070474FEA410212F5001215D211D5BB
:100B20006FF47873B3EB625212D94FEAC12343F0EA
:100B3000004343EA505311F0004F23FA02F018BF6C
:100B4000404270474FF00000704750EA013005D135
:100B500011F0004008BF6FF0004070474FF00000F8
:100B6000704700BF0348044B834202D0034B03B1DC
:100B70001847704754070020540700200000000069
:100B80000548064B1B1AD90F01EBA301491002D0EF
:100B9000034B03B118477047540700205407002047
:100BA0000000000010B5064C237843B9FFF7DAFFC8
:100BB000044B13B10448AFF300800123237010BD30
:100BC000540700200000000000A5000808B5054BF0
:100BD0001BB105490548AFF30080BDE80840FFF7A9
:100BE000CFBF00BF000000005807002000A500088C
:100BF0002DE9F84304460F4690469946344D0022AD
:100C00001021284602F0E9FB00222021284602F0AC
:100C1000E4FB00250DE0012280212D4802F0DDFBE0
:100C2000012220212A4802F0D8FB6400E4B20135F9
:100C3000EDB2072D0DD800222021254802F0CDFB72
:100C400014F0800FE7D100228021214802F0C5FB7B
:100C5000E6E7002220211E4802F0BFFB002624E028
:100C6000002280211A4802F0B8FB012220211848F6
:100C700002F0B3FB6D00EDB20134E4B2072C0DD8E5
:100C800000222021124802F0A8FB15F0800FE7D0C7
:100C9000012280210E4802F0A0FBE6E7012220217C
:100CA0000B4802F09AFB0136F6B2BE4203D218F8A6
:100CB00006500024E2E7B9F1000F06D1012210210D
:100CC000034802F08AFBBDE8F88300F065FDF5E714
:100CD0000008014010B582B08DF80700002409E03B
:100CE0004FF47A7301220DF10701064803F0B2F9BF
:100CF0000134E4B2022C03D89DF80730002BEFD169
:100D000002B010BDD808002038B50546002407E021
:100D10004FF47A730122054803F09CF90134E4B2E0
:100D200029192B5D002BF3D138BD00BFD808002056
:100D300038B5174D174C2A881749204603F0DAFAC0
:100D40002046FFF7E1FFFF20FFF7C4FF134A1449D5
:100D5000204603F0CFFA2046FFF7D6FFFF20FFF72B
:100D6000B9FF6A880F49204603F0C4FA2046FFF70E
:100D7000CBFFFF20FFF7AEFF6A880B49204603F048
:100D8000B9FA2046FFF7C0FFFF20FFF7A3FF38BDE9
:100D9000240000207807002018A500081800002073
:100DA00028A500083CA500084CA5000838B5124D40
:100DB000124C2A881249204603F09CFA2046FFF77D
:100DC000A3FFFF20FFF786FF6A880E49204603F045
:100DD00091FA2046FFF798FFFF20FFF77BFF6A8814
:100DE0000949204603F086FA2046FFF78DFFFF20D1
:100DF000FFF770FF38BD00BF2400002078070020F7
:100E00003CA5000818A5000860A5000838B5124DDB
:100E1000124C2A881249204603F06CFA2046FFF74C
:100E200073FFFF20FFF756FF6A880E49204603F044
:100E300061FA2046FFF768FFFF20FFF74BFF6A8843
:100E40000949204603F056FA2046FFF75DFFFF20D0
:100E5000FFF740FF38BD00BF2400002078070020C6
:100E600060A500083CA5000870A5000838B5174D1E
:100E7000174C2A881749204603F03CFA2046FFF712
:100E800043FFFF20FFF726FF6A881349204603F03F
:100E900031FA2046FFF738FFFF20FFF71BFF6A8873
:100EA0000E49204603F026FA2046FFF72DFFFF20CB
:100EB000FFF710FF0A4A0B49204603F01BFA2046B1
:100EC000FFF722FFFF20FFF705FF38BD24000020B9
:100ED0007807002070A5000860A5000880A500081C
:100EE0001800002028A5000838B5174D174C2A888F
:100EF0001749204603F0FEF92046FFF705FFFF20C3
:100F0000FFF7E8FE134A1449204603F0F3F92046A0
:100F1000FFF7FAFEFF20FFF7DDFE6A880F49204643
:100F200003F0E8F92046FFF7EFFEFF20FFF7D2FEBF
:100F30006A880B49204603F0DDF92046FFF7E4FEFE
:100F4000FF20FFF7C7FE38BD2400002078070020EF
:100F500080A500080C00002028A5000870A5000846
:100F600090A5000838B5124D124C2A881249204627
:100F700003F0C0F92046FFF7C7FEFF20FFF7AAFEE7
:100F80006A880E49204603F0B5F92046FFF7BCFEFB
:100F9000FF20FFF79FFE6A880949204603F0AAF95F
:100FA0002046FFF7B1FEFF20FFF794FE38BD00BFDB
:100FB000240000207807002090A5000880A50008E4
:100FC000A0A5000838B5124D124C2A8812492046B7
:100FD00003F090F92046FFF797FEFF20FFF77AFE17
:100FE0006A880E49204603F085F92046FFF78CFEFB
:100FF000FF20FFF76FFE6A880949204603F07AF95F
:101000002046FFF781FEFF20FFF764FE38BD00BFDA
:101010002400002078070020A0A50008B0A5000843
:1010200090A5000838B5174D174C2A881749204657
:1010300003F060F92046FFF767FEFF20FFF74AFE46
:101040006A881349204603F055F92046FFF75CFEF5
:10105000FF20FFF73FFE6A880E49204603F04AF959
:101060002046FFF751FEFF20FFF734FE0A4A0B49E6
:10107000204603F03FF92046FFF746FEFF20FFF72A
:1010800029FE38BD2400002078070020B0A5000804
:10109000C0A50008A0A500080C00002028A5000895
:1010A00038B5174D174C2A881749204603F022F906
:1010B0002046FFF729FEFF20FFF70CFE134A1449D4
:1010C000204603F017F92046FFF71EFEFF20FFF72A
:1010D00001FE6A880F49204603F00CF92046FFF70D
:1010E00013FEFF20FFF7F6FD6A880B49204603F048
:1010F00001F92046FFF708FEFF20FFF7EBFD38BDA2
:101100002400002078070020C0A50008000000206F
:1011100028A50008B0A50008D0A5000838B5124DD4
:10112000124C2A881249204603F0E4F82046FFF7C3
:10113000EBFDFF20FFF7CEFD6A880E49204603F045
:10114000D9F82046FFF7E0FDFF20FFF7C3FD6A88CE
:101150000949204603F0CEF82046FFF7D5FDFF20D1
:10116000FFF7B8FD38BD00BF24000020780700203D
:10117000D0A50008E4A50008C0A5000838B5174DA3
:10118000174C2A881749204603F0B4F82046FFF789
:10119000BBFDFF20FFF79EFD6A881349204603F040
:1011A000A9F82046FFF7B0FDFF20FFF793FD6A88FE
:1011B0000E49204603F09EF82046FFF7A5FDFF20CC
:1011C000FFF788FD6A880A49204603F093F8204615
:1011D000FFF79AFDFF20FFF77DFD38BD24000020BA
:1011E00078070020E4A50008A0A50008D0A5000805
:1011F000F8A5000838B5174D174C2A88174920461E
:1012000003F078F82046FFF77FFDFF20FFF762FD2F
:101210006A881349204603F06DF82046FFF774FDF5
:10122000FF20FFF757FD6A880E49204603F062F859
:101230002046FFF769FDFF20FFF74CFD0A4A0B49E6
:10124000204603F057F82046FFF75EFDFF20FFF72A
:1012500041FD38BD2400002078070020F8A50008D3
:101260000CA60008E4A500080000002028A500083E
:1012700038B5184D184C2A881849204603F03AF81A
:101280002046FFF741FDFF20FFF724FD144B1A789D
:101290001449204603F02EF82046FFF735FDFF20C5
:1012A000FFF718FD6A881049204603F023F820460E
:1012B000FFF72AFDFF20FFF70DFD6A880B49204646
:1012C00003F018F82046FFF71FFDFF20FFF702FD8F
:1012D00038BD00BF24000020780700200CA60008BD
:1012E000DD07002020A60008F8A500084CA500088E
:1012F00038B5124D124C2A881249204602F0FAFFE6
:101300002046FFF701FDFF20FFF7E4FC6A880E4945
:10131000204602F0EFFF2046FFF7F6FCFF20FFF724
:10132000D9FC6A880949204602F0E4FF2046FFF70D
:10133000EBFCFF20FFF7CEFC38BD00BF24000020EF
:10134000780700204CA5000818A500080CA6000886
:1013500038B5544D544C6A885449204602F0CAFFAF
:101360002046FFF7D1FCFF20FFF7B4FC6A88504904
:10137000204602F0BFFF2046FFF7C6FCFF20FFF724
:10138000A9FC6A884B49204602F0B4FF2046FFF7CB
:10139000BBFCFF20FFF79EFC6A884749204602F00D
:1013A000A9FF2046FFF7B0FCFF20FFF793FC6A88F7
:1013B0004249204602F09EFF2046FFF7A5FCFF2091
:1013C000FFF788FC6A883E49204602F093FF2046DA
:1013D000FFF79AFCFF20FFF77DFC6A883949204619
:1013E00002F088FF2046FFF78FFCFF20FFF772FC1A
:1013F0006A883549204602F07DFF2046FFF784FCCD
:10140000FF20FFF767FC6A883049204602F072FF30
:101410002046FFF779FCFF20FFF75CFC6A882C4927
:10142000204602F067FF2046FFF76EFCFF20FFF723
:1014300051FC6A882749204602F05CFF2046FFF7EE
:1014400063FCFF20FFF746FC6A882349204602F030
:1014500051FF2046FFF758FCFF20FFF73BFC6A884E
:101460001E49204602F046FF2046FFF74DFCFF20B4
:10147000FFF730FC6A881A49204602F03BFF2046FD
:10148000FFF742FCFF20FFF725FC6A88154920463C
:1014900002F030FF2046FFF737FCFF20FFF71AFC71
:1014A00038BD00BF240000207807002018A50008E0
:1014B0003CA5000860A5000870A5000880A50008EC
:1014C00090A50008A0A50008B0A50008C0A50008C8
:1014D000D0A50008E4A50008F8A500080CA600089F
:1014E00034A600084CA5000808B5504B1B78012B0A
:1014F00003D0002B00F0968008BD4D4B1B78012BCC
:1015000052D04B4B00221A704A4B1B78012B55D0FE
:10151000484B00221A70484B1B68484AD35C484A23
:101520001360013B1D2BE7D801A252F823F000BF46
:10153000D1150008D7150008DD150008E3150008CF
:10154000E9150008EF150008F5150008FB1500085F
:1015500001160008071600080D16000813160008EB
:10156000F9140008F9140008F9140008F914000827
:10157000F9140008F9140008F9140008F914000817
:10158000F9140008F9140008F9140008F914000807
:1015900019160008F9140008F9140008F9140008D5
:1015A000F91400081F160008234A1368013313605A
:1015B0000D2BA6DD134600221A60A2E71E4A13680F
:1015C000013B1360002BA3DA13460D221A609FE73C
:1015D000FFF7AEFB90E7FFF7E9FB8DE7FFF716FC9F
:1015E0008AE7FFF743FC87E7FFF77EFC84E7FFF716
:1015F000B9FC81E7FFF7E6FC7EE7FFF713FD7BE729
:10160000FFF74EFD78E7FFF789FD75E7FFF7B6FDB9
:1016100072E7FFF7EFFD6FE7FFF72AFE6CE7FFF7D2
:1016200067FE69E7FFF794FE66E700BFDC0700206E
:101630001008002012080020700700202800002059
:101640007407002038B5444D444C2A68444920466C
:1016500002F050FE2046FFF757FBFF20FFF73AFB52
:101660006A684049204602F045FE2046FFF74CFBE1
:10167000FF20FFF72FFBAA683B49204602F03AFE05
:101680002046FFF741FBFF20FFF724FBEA683749BC
:10169000204602F02FFE2046FFF736FBFF20FFF723
:1016A00019FB334D2A683349204602F023FE2046B9
:1016B000FFF72AFBFF20FFF70DFB6A682E49204643
:1016C00002F018FE2046FFF71FFBFF20FFF702FB8A
:1016D000AA682A49204602F00DFE2046FFF714FBB7
:1016E000FF20FFF7F7FAEA682549204602F002FEDC
:1016F0002046FFF709FBFF20FFF7ECFA214D2A688F
:101700002149204602F0F6FD2046FFF7FDFAFF20B2
:10171000FFF7E0FA6A681D49204602F0EBFD20461B
:10172000FFF7F2FAFF20FFF7D5FAAA68184920461A
:1017300002F0E0FD2046FFF7E7FAFF20FFF7CAFAC4
:10174000EA681449204602F0D5FD2046FFF7DCFA8E
:10175000FF20FFF7BFFA38BD6000002078070020A7
:1017600048A600085CA6000870A6000884A6000829
:101770005000002098A60008ACA60008C0A60008EB
:10178000D4A60008EC070020E8A60008FCA6000884
:1017900010A7000824A7000810B50A4C00224FF437
:1017A0008071204601F019FE01224FF4807120461D
:1017B00001F013FE00224FF48071204601F00DFE6F
:1017C00010BD00BF0008014038B5214D00224FF484
:1017D0008061284601F001FE01221021284601F017
:1017E000FCFD01222021284601F0F7FD00224FF4E4
:1017F0008071284601F0F1FD164C00224021204660
:1018000001F0EBFD00228021204601F0E6FD0022E0
:101810004FF48071204601F0E0FD00224FF400718A
:10182000204601F0DAFD00228021284601F0D5FD96
:1018300000220821204601F0D0FD00221021204680
:1018400001F0CBFD00222021204601F0C6FD38BD6D
:1018500000080140000C014010B50A4C00224FF472
:101860000071204601F0B9FD01224FF400712046BD
:1018700001F0B3FD00224FF40071204601F0ADFDF0
:1018800010BD00BF0008014010B504460846FEF731
:1018900081FD1DA3D3E90023FEF78CFEFEF7F4FDC6
:1018A0001B4AD070C0F307239370C0F307435370F3
:1018B000030E1370032C09D8DFE804F0020F161D85
:1018C0000123144A19460020FFF792F90123104A18
:1018D00004210846FFF78CF910BD01230E4A194672
:1018E0000020FFF785F9F1E701230C4A1946002093
:1018F000FFF77EF9EAE70123094A19460020FFF7BE
:1019000077F9E3E7AFF3008095D626E80B2E214068
:10191000E80700204C000020480000204400002080
:101920004000002008B5B1F5B47F01D94FF4B4717F
:10193000C1EB0131194B83FB01230B44C917C1EBE8
:10194000A311174B5970C1F307211970032809D847
:10195000DFE800F0020F161D0123124A194600208D
:10196000FFF746F901230E4A02210520FFF740F94F
:1019700008BD01230C4A19460020FFF739F9F1E7A9
:1019800001230A4A19460020FFF732F9EAE701234A
:10199000074A19460020FFF72BF9E3E7B7600BB6BB
:1019A000E40700204C0000204800002044000020F4
:1019B0004000002008B540F22623994200D919467C
:1019C000C1EB81211D4B83FB0123C917C1EB2323ED
:1019D0009BB2B3F5806F01D340F2FF3343F48052E2
:1019E00017498B70C2F307234B70032809D8DFE82F
:1019F00000F0020F161D0123124A19460020FFF7BE
:101A0000F7F801230E4A03210620FFF7F1F808BD7D
:101A100001230D4A19460020FFF7EAF8F1E70123F8
:101A20000A4A19460020FFF7E3F8EAE70123084ACB
:101A300019460020FFF7DCF8E3E700BF73072877BB
:101A4000E00700204C000020480000204400002057
:101A50004000002010B5FFF7B7FEFFF7FDFE0123A1
:101A60001F4A03211846FFF7C3F801231D4A02212C
:101A70000846FFF7BDF81C4C21680020FFF704FF63
:101A800061680120FFF700FFA1680220FFF7FCFE5C
:101A9000E1680320FFF7F8FE144C21880020FFF7CF
:101AA00089FFA1880120FFF785FF21890220FFF728
:101AB00081FFA1890320FFF77DFF0D4C21880020C5
:101AC000FFF730FFA1880120FFF72CFF21890220BA
:101AD000FFF728FFA1890320FFF724FF10BD00BFF7
:101AE0003C00002038000020600000205000002052
:101AF000EC0700202DE9F04389B0002504950595F9
:101B000006950795444B9A6942F010029A619A69CA
:101B100002F010020092009A9A6942F020029A6143
:101B20009A6902F020020192019A9A6942F0040235
:101B30009A619A6902F004020292029A9A6942F04A
:101B400008029A619B6903F008030393039BDFF883
:101B5000CC902A464FF40051484601F03EFC304EEE
:101B60002A464FF4F661304601F037FCDFF8B480C6
:101B70002A464FF47E71404601F02FFC4FF400538B
:101B800004930124059406940227079704A9484664
:101B900001F00EFBB0230493059406944FF0030963
:101BA000CDF81C9004A9304601F002FB41F6034336
:101BB00004930595069404A9404601F0F9FA4FF400
:101BC0008073049305940697079704A9304601F0A3
:101BD000EFFA4FF40073049305940694079704A951
:101BE000304601F0E5FA4FF48063049305940697BC
:101BF000CDF81C9004A9304601F0DAFA4FF47E7358
:101C0000049305940694CDF81C9004A9404601F075
:101C1000CFFA09B0BDE8F083001002400010014087
:101C200000080140000C014010B5A64C01212046DF
:101C300001F0CCFBA44B18704FF40061204601F07A
:101C4000C5FBA24B18704FF48051204601F0BEFB3B
:101C50009F4B18700221204601F0B8FB9D4B187075
:101C60004FF48061204601F0B1FB9B4B18700128B6
:101C700003D09A4B1B78012B3BD0974B1B78012B41
:101C800058D0914B1B78012B03D0954B1B78012B1F
:101C90006DD08D4B1B78012B00F086808B4B1B7811
:101CA000012B04D08F4B1B78012B00F09B80874BBE
:101CB0001B78012B00F0BB80854B1B78012B04D0D7
:101CC000894B1B78012B00F0D780814B1B78012BAF
:101CD00000F024817F4B1B78012B04D0834B1B78B1
:101CE000012B00F040817B4B1B78012B00F06081C1
:101CF00010BD7F4B1B79002BBFD17E4B01221A7088
:101D00000024764B1C707C4A1378013313704FF417
:101D100000517A4801F067FB794B1C7005E0744A6A
:101D20000121D1540B44764A1370754B1B78042B58
:101D3000F5D9A2E7694B1B78002BA2D1674B012292
:101D40001A7000246B4B1C704FF400516B4801F06B
:101D50004AFB6B4B1C7005E0654A0021D1540133EE
:101D6000674A1370664B1B78042BF5D989E7604BE3
:101D70001B78002B8DD1634B01221A700024584B25
:101D80001C704FF400515D4801F02DFB5E4B1C7040
:101D900005E00133564A0121D1545B4A13705A4B76
:101DA0001B78042BF5D974E74D4B1B78002B7FF47F
:101DB00075AF4B4B01221A700024524B1C704FF42C
:101DC00000514E4801F00FFB4F4B1C7005E00133F2
:101DD000474A0021D1544C4A13704B4B1B78042BBB
:101DE000F5D95BE7424B5B78002B7FF460AF474B44
:101DF00001221A7000243B4B1C704FF400513F48E5
:101E000001F0F1FA424B1C7006E05A1C38490120DF
:101E1000885401333E4A13703D4B1B78042B3FF628
:101E200046AF012BF1D0324A0121D154F1E72D4BBD
:101E30001B78002B7FF440AF2A4B01221A7000243C
:101E4000324B1C704FF400512C4801F0CCFA304B4F
:101E50001C7006E05A1C26490020885401332C4A85
:101E600013702B4B1B78042B3FF626AF012BF1D0C0
:101E70001F4A0021D154F1E71D4B9B78002B7FF4C2
:101E800024AF244B01221A700024174B1C704FF40E
:101E900000511A4801F0A7FA1F4B1C7006E05A1CAB
:101EA00013490120885401331B4A13701A4B1B78C5
:101EB000042B3FF60AAF022BF1D00D4A0121D15479
:101EC000F1E700BF000C01400E0800200D080020C3
:101ED0000C0800200B0800200A08002070000020D9
:101EE00074000020730000207200002071000020A8
:101EF000040800200F0800200908002000100140FD
:101F0000FC07002013080020000800201208002011
:101F1000FF07002011080020FE070020374B1B7828
:101F2000002B7FF4D7AE354B01221A700024344BBE
:101F30001C704FF40051334801F055FA324B1C70BD
:101F400006E05A1C31490020885401332E4A137090
:101F50002D4B1B78042B3FF6BDAE022BF1D02B4A44
:101F60000021D154F1E7294BDB78002B7FF4BBAE85
:101F7000274B01221A700024264B1C704FF400518D
:101F8000204801F030FA244B1C7006E05A1C1F490F
:101F9000012088540133204A13701F4B1B78042BF7
:101FA0003FF6A1AE032BF1D0184A0121D154F1E73D
:101FB000184B1B78002B7FF49BAE164B01221A7036
:101FC0000024134B1C704FF400510E4801F00BFA23
:101FD000114B1C7006E05A1C0C4900208854013338
:101FE0000D4A13700C4B1B78032B3FF681AE032B6D
:101FF000F1D0064A0021D154F1E700BF7200002061
:102000001108002000100140FE07002004080020F5
:102010001008002071000020FD07002072B6FEE7C6
:1020200000B591B02822002106A802F0CDF90023C6
:1020300001930293039304930593012206924FF4B4
:10204000803307930A9202220D920E934FF4E0130D
:102050000F9306A801F0E6F980B90F23019302213E
:102060000291002303934FF480620492059301A828
:1020700001F00AFC20B911B05DF804FBFFF7CEFFB8
:10208000FFF7CCFF08B500F0E3FFFFF7C9FFFFF74C
:1020900031FD00F03DFF00F091FD00F0C7FD0B4861
:1020A00001F0A8FF0A4801F0F9FC0A4801F0F6FC2B
:1020B000FF20FEF70FFEFFF7C5FAFFF7CBFCFFF797
:1020C000B3FD00F07BFCFFF70FFAF8E7D80800201B
:1020D000900800204808002010B5474C474B1A686C
:1020E0004749204602F006F92046FEF70DFEFF2084
:1020F000FEF7F0FD434B1B68013B032B07D8DFE8DD
:1021000003F00223282D404B1A683C4B1A603F4BCA
:102110001B78012B27D03E4B1B78012B3BD0374B34
:102120001A683C4B9A4202DD344B3A4A1A60334BF0
:102130001B68002B47DB334B1B68013B032B4AD842
:10214000DFE803F0454A4F54334B1A682B4B1A60B3
:10215000DDE7324B1A68294B1A60D8E7304B1A6812
:10216000264B1A60D3E72F4B1B785BB1012BD6D1DE
:10217000224A1368A3F5C333A03B1360782000F014
:102180008BFFCCE71D4A1368A3F57A7313607820A0
:1021900000F082FFC3E7234B9B785BB1012BBED1DC
:1021A000164A136803F5C333A0331360782000F098
:1021B00073FFB4E7114A136803F57A73136078204C
:1021C00000F06AFFABE70D4B00221A60B3E70B4B40
:1021D0001A680D4B1A6010BD084B1A680E4B1A6036
:1021E000F9E7064B1A680D4B1A60F4E7034B1A68BF
:1021F0000B4B1A60EFE700BF78070020280800208B
:1022000038A7000874070020900000201308002061
:10221000110800200065CD1D8C00002088000020E2
:10222000840000203808002010B5464C464BB3F916
:1022300000204649204602F05DF82046FEF764FD86
:10224000FF20FEF747FD424B1B68053B032B07D8D9
:10225000DFE803F002272C313E4B1A883A4B1A80F4
:102260003D4B1B78012B2BD03C4B1B78012B3CD0DA
:10227000354BB3F9002040F226239A4203DD324B5E
:1022800040F226221A80304BB3F90030002B41DB9C
:102290002F4B1B68053B032B44D8DFE803F03F447A
:1022A000494E2F4B1A88284B1A80D9E72D4B1A8894
:1022B000254B1A80D4E72C4B1A88234B1A80CFE782
:1022C0002A4B1B784BB1012BD2D11F4A1388643B98
:1022D0001380782000F0E0FECAE71B4A13880A3B0F
:1022E0001380782000F0D8FEC2E7204B9B784BB1DA
:1022F000012BBDD1144A138864331380782000F079
:10230000CBFEB5E7104A13880A331380782000F01B
:10231000C3FEADE70C4B00221A80B9E70A4B1A88BE
:102320000C4B1A8010BD084B1A880D4B1A80F9E728
:10233000054B1A880B4B1A80F4E7034B1A880A4B9B
:102340001A80EFE7780700202408002038A700084B
:1023500074070020820000201308002011080020CC
:10236000800000207E0000207C0000203808002033
:1023700010B5464C464BB3F900204649204601F0C3
:10238000B9FF2046FEF7C0FCFF20FEF7A3FC424B3E
:102390001B68093B032B07D8DFE803F002262B302C
:1023A0003E4B1A883A4B1A803D4B1B78012B2AD0A2
:1023B0003C4B1B78012B3BD0354BB3F90030B3F5C8
:1023C000B47F03DD324B4FF4B4721A80304BB3F953
:1023D0000030002B41DB304B1B68093B032B44D8FA
:1023E000DFE803F03F44494E2F4B1A88284B1A80F0
:1023F000DAE72E4B1A88264B1A80D5E72C4B1A8821
:10240000234B1A80D0E72B4B1B784BB1012BD3D138
:102410001F4A13881E3B1380782000F03DFECBE757
:102420001B4A13880A3B1380782000F035FEC3E76F
:10243000204B9B784BB1012BBED1154A13886433D6
:102440001380782000F028FEB6E7114A13880A337B
:102450001380782000F020FEAEE70D4B00221A809A
:10246000B9E70B4B1A880D4B1A8010BD084B1A8820
:102470000D4B1A80F9E7064B1A880C4B1A80F4E7CB
:10248000034B1A880A4B1A80EFE700BF7807002039
:102490001A08002038A7000874070020220800202E
:1024A0001308002011080020200800201E0800202A
:1024B0001C0800203808002010B51A4B1B78012B8F
:1024C0001CD0194B1B78012B20D0184B1B68042BF8
:1024D00002DD164B04221A60144B1B68002B1DDB17
:1024E000134C124B1A681349204601F003FF204693
:1024F000FEF70AFCFF20FEF7EDFB10BD0B4A136848
:10250000013B1360782000F0C7FDDEE7074A13683F
:1025100001331360782000F0BFFDD6E7034B0022A3
:102520001A60DDE713080020110800207800002061
:10253000780700204CA7000810B51C4B1B78012B16
:102540001FD01B4B1B78012B23D01A4B93F9003063
:10255000012B02DD174B01221A70164B93F9003044
:10256000002B1EDB144C134B93F90020134920461B
:1025700001F0C0FE2046FEF7C7FBFF20FEF7AAFBD6
:1025800010BD0C4A1378013B1370782000F084FDD5
:10259000DBE7084A137801331370782000F07CFDE4
:1025A000D3E7044B00221A70DCE700BF13080020B9
:1025B00011080020180800207807002060A70008F4
:1025C00010B5A84B1B68A84A11688B4224D1A54BB3
:1025D0005B68A64A11688B4263D1A24B9B68A44AF0
:1025E00011688B4270D19F4BDB68A24A11688B4205
:1025F00024D09C4BD9600320FFF746F99E4C9D4B9D
:102600001A689E49204601F075FE2046FEF77CFBC5
:10261000FF20FEF75FFB11E0924B19600020FFF7EF
:1026200033F9954C904B1A689549204601F062FEAB
:102630002046FEF769FBFF20FEF74CFB914B1B6821
:10264000914AB2F900108B4251D18E4B5B688F4A90
:10265000B2F900108B4240F08F808A4B9B688C4A05
:10266000B2F900108B4240F09C80864BDB68894AAF
:10267000B2F900108B424ED0824BD96089B2032050
:10268000FFF798F97C4C834BB3F900208249204630
:1026900001F030FE2046FEF737FBFF20FEF71AFB65
:1026A00039E0704B59600120FFF7EEF8724C6F4B28
:1026B0001A687A49204601F01DFE2046FEF724FBE9
:1026C000FF20FEF707FBB9E7664B99600220FFF792
:1026D000DBF8694C664B1A687149204601F00AFE26
:1026E0002046FEF711FBFF20FEF7F4FAA6E7654B44
:1026F000196089B20020FFF75DF95F4C624BB3F9B6
:1027000000206849204601F0F5FD2046FEF7FCFA5E
:10271000FF20FEF7DFFA644B1B68644AB2F9001031
:102720008B4253D1604B5A68614BB3F900309A42E7
:102730006ED15D4B9A685F4BB3F900309A427CD101
:10274000594BDA685C4BB3F900309A4252D0564A82
:10275000D16099B20320FFF7E5F8474C564BB3F927
:1027600000205649204601F0C5FD2046FEF7CCFA70
:10277000FF20FEF7AFFA3DE0424B596089B20120DD
:10278000FFF718F93C4C414BB3F900204C49204667
:1027900001F0B0FD2046FEF7B7FAFF20FEF79AFAE7
:1027A000B9E7384B996089B20220FFF703F9324C40
:1027B000374BB3F900204349204601F09BFD2046EA
:1027C000FEF7A2FAFF20FEF785FAA4E7364B196060
:1027D00089B20020FFF7A6F8274C344BB3F900204C
:1027E0003949204601F086FD2046FEF78DFAFF208C
:1027F000FEF770FA354B1A68354B1B689A4200F0A9
:102800008180042B7AD8DFE803F0697E90A3B700BB
:10281000254A516099B20120FFF784F8164C244BE9
:10282000B3F900202B49204601F064FD2046FEF755
:102830006BFAFF20FEF74EFADCE71B4A916099B273
:102840000220FFF76FF80C4C1A4BB3F90020224915
:10285000204601F04FFD2046FEF756FAFF20FEF716
:1028600039FAC7E760000020900000208C000020AB
:1028700088000020840000207807002084A600083B
:1028800048A60008500000208200002080000020A0
:102890007E0000207C000020D4A600085CA6000872
:1028A00070A6000898A60008EC0700202208002067
:1028B000200800201E0800201C08002024A7000873
:1028C000ACA60008C0A60008E8A60008140800206E
:1028D00078000020FCA6000810A700080021084688
:1028E000FEF7D2FF00210120FEF7CEFF00210220DB
:1028F000FEF7CAFF00210320FEF7C6FF294B1A6826
:10290000294B1A6010BD294B19680020FEF7BCFF47
:1029100000210120FEF7B8FF00210220FEF7B4FFDE
:1029200000210320FEF7B0FFE8E7204B19680020E4
:10293000FEF7AAFF1E4B19680120FEF7A5FF002134
:102940000220FEF7A1FF00210320FEF79DFFD5E73F
:10295000164B19680020FEF797FF154B19680120E8
:10296000FEF792FF134B19680220FEF78DFF00213E
:102970000320FEF789FFC1E70C4B19680020FEF722
:1029800083FF0B4B19680120FEF77EFF094B196886
:102990000220FEF779FF084B19680320FEF774FF49
:1029A000ACE700BF78000020140800209000002051
:1029B0008C000020880000208400002008B52E4BE9
:1029C0001B78012B02D0002B53D008BD2B4B1B686A
:1029D000013B1D2BF9D801A252F823F0552A00081B
:1029E000552A0008552A0008552A00085B2A0008C5
:1029F0005B2A00085B2A00085B2A0008612A00089D
:102A0000612A0008612A0008612A0008CB29000811
:102A1000CB290008CB290008CB290008CB290008C6
:102A2000CB290008CB290008CB290008CB290008B6
:102A3000CB290008CB290008CB290008672A000809
:102A4000CB290008CB290008CB290008CB29000896
:102A50006D2A0008FFF740FBB7E7FFF7E5FBB4E797
:102A6000FFF786FCB1E7FFF727FDAEE7FFF764FD50
:102A7000ABE7FFF7A5FDA8E7DC07002074070020FF
:102A800082B00E4B9A6942F001029A619A6902F093
:102A900001020092009ADA6942F08052DA61DB6941
:102AA00003F080530193019B054A536823F0E063D0
:102AB00043F00073536002B0704700BF0010024043
:102AC00000000140FEE7FEE7FEE7FEE7FEE7704795
:102AD0007047704708B500F0CDFA08BD08B5024848
:102AE00001F014F808BD00BF9008002008B50248A6
:102AF00001F00CF808BD00BF480800200120704715
:102B000008B501F005FD162303604FF0FF3008BD46
:102B100008B54FF0FF31FFF7F3FFFEE770B50C4645
:102B20001646002506E0AFF30080214601F8010BB0
:102B300001350C46B542F6DB304670BD70B50C462B
:102B40001646002504E014F8010BAFF300800135B0
:102B5000B542F8DB304670BD4FF0FF3070474FF4A0
:102B600000534B60002070470120704700207047E1
:102B700010B503460C4A0D490D48006840B10C4899
:102B800000680344521A934206D8094A136010BDE4
:102B90000748084C0460F2E701F0BAFC0C2303601C
:102BA0004FF0FF30F3E700BF0050002000040000AA
:102BB0002C080020380C00207047000000B587B0BA
:102BC0000023029303930493059300930193164803
:102BD0004FF08042026041F61F42426083606322F0
:102BE000C26003618023836101F088F890B94FF4DB
:102BF0008053029302A90C4801F0B8F868B9002389
:102C0000009301936946084801F030F940B907B0D4
:102C10005DF804FBFFF702FAE9E7FFF7FFF9EEE7DB
:102C2000FFF7FCF9F3E700BF9008002000B587B07C
:102C30000023029303930493059300930193154893
:102C4000154A026040F2CF22426083606322C26074
:102C500003618023836101F051F890B94FF48053F0
:102C6000029302A90B4801F081F868B90023009390
:102C700001936946074801F0F9F840B907B05DF8DB
:102C800004FBFFF7CBF9E9E7FFF7C8F9EEE7FFF739
:102C9000C5F9F3E7480800200004004000B583B000
:102CA0000368B3F1804F05D0164A934216D003B0A3
:102CB0005DF804FB03F50433DA6942F00102DA61DE
:102CC000DB6903F001030093009B002201211C201B
:102CD00000F03CFA1C2000F049FAE8E70A4BDA69F8
:102CE00042F00202DA61DB6903F002030193019B07
:102CF000002211461D2000F029FA1D2000F036FAAE
:102D0000D5E700BF000400400010024010B50446A3
:102D100002686F4B1B689A4205D022686D4B1B6896
:102D20009A421DD010BD6C4B1B78002BF5D16B4B1C
:102D300093F90030012BF0D1694B1968013119600A
:102D4000B1F57A7F08D9664B1B68B3F57A7FE4D971
:102D5000634B00221A60E0E70020FEF795FDF2E7E2
:102D6000604B1B78012B36D03BB95F4A13715F4A29
:102D700013715F4A1378013313705D4B1B78632B1B
:102D800003D95C4B1B78002B44D05B4B1B78012B89
:102D90004CD01BB9544A1370544A1370574B1B78CC
:102DA000012B57D01BB9504A5370504A5370544BA3
:102DB0001B78012B62D01BB94B4A93704B4A93701E
:102DC000504B1B78012B6DD0002BABD1464AD370F2
:102DD000464AD370A6E7444A1279002AC4D1002398
:102DE000434A1370434A1370404A13790133DBB2EC
:102DF0001371632BC1D94FF40051434800F0F3FA2B
:102E0000394B01221A71344A1378B3FA83F35B0900
:102E10001370B2E73D4B00221A70364B01221A7034
:102E20004FF40051384800F0DEFAAEE72E4A12782F
:102E3000002AAED12D4A13780133DBB21370632B15
:102E4000ACD94FF40051304800F0CDFA264B0122A6
:102E50001A70A3E7244A5278002AA3D1234A537850
:102E60000133DBB25370632BA1D94FF400512648D4
:102E700000F0B9FA1C4B01225A7098E71A4A92786E
:102E8000002A98D1194A93780133DBB29370632BEF
:102E900096D94FF400511C4800F0A5FA124B0122BC
:102EA0009A708DE7104AD278002A8DD10F4AD378D4
:102EB0000133DBB2D370632B7FF634AF4FF4005194
:102EC000114800F090FA084B0122DA702AE700BF9F
:102ED0004808002090080020DC0700201808002087
:102EE000300800200F08002038080020400800208B
:102EF00035080020340800201308002012080020A4
:102F000011080020100800200010014009080020CE
:102F100008B50A480A4B03604FF4E13343600023CD
:102F20008360C36003610C2242618361C36101F06D
:102F300061F800B908BDFFF771F8FBE7D808002079
:102F40000044004010B586B000230293039304931D
:102F500005930268164B9A4201D006B010BD03F5E6
:102F6000E633DA6942F40032DA61DA6902F40032F7
:102F70000092009A9A6942F004029A619B6903F0F8
:102F800004030193019B042302930223039303236D
:102F90000593084C02A9204600F00AF90823029381
:102FA00000230393049302A9204600F001F9D4E71B
:102FB0000044004000080140FFF7FEFD0B480C49AB
:102FC0000C4A002302E0D458C4500433C4188C4285
:102FD000F9D3094A094C002301E013600432A242EC
:102FE000FBD301F09BFAFFF74DF87047000000207B
:102FF00054070020A0AB000854070020380C002024
:10300000FEE7000010B504460E4B1A784FF47A73B1
:10301000B3FBF2F30C4A1068B0FBF3F000F0B4F825
:1030200068B90F2C01D901200AE0002221464FF097
:10303000FF3000F08BF8054B1C60002000E0012001
:1030400010BD00BF98000020940000209C000020CC
:1030500008B5074A136843F010031360032000F01B
:1030600063F80F20FFF7CEFFFFF70AFD002008BD31
:1030700000200240034A1168034B1B780B44136085
:10308000704700BF2009002098000020014B1868FD
:10309000704700BF2009002038B50446FFF7F6FF4F
:1030A0000546B4F1FF3F02D0044B1B781C44FFF7E8
:1030B000EDFF401BA042FAD338BD00BF98000020AE
:1030C000002808DB0901C9B200F1604000F5614049
:1030D00080F80013704700F00F000901C9B2014BDE
:1030E0001954704714ED00E000B500F00700C0F17E
:1030F000070CBCF1040F28BF4FF0040C031D062B76
:103100000FD9C31E4FF0FF3E0EFA0CF021EA00016A
:1031100099400EFA03FE22EA0E0241EA02005DF82F
:1031200004FB0023EEE70000074AD36823F4E063C2
:103130001B041B0C000200F4E060034343F0BF6378
:1031400043F40033D360704700ED00E010B504464F
:10315000054BD868C0F30220FFF7C6FF01462046A2
:10316000FFF7AEFF10BD00BF00ED00E0002807DB59
:1031700000F01F02400901239340024A42F8203028
:10318000704700BF00E100E00138B0F1807F0BD252
:103190004FF0E0235861054AF02182F82310002007
:1031A000986107221A6170470120704700ED00E026
:1031B00070B582B00024A446A1E07E4DAB4214D08D
:1031C0000CD8A5F58015AB420FD005F57025AB42A4
:1031D0000BD0A5F58015AB4210D106E0764DAB4281
:1031E00003D005F58035AB4208D18B68002B50D059
:1031F000012B49D04261082400E0CC68BEF1FF0FEA
:1032000049D806464FEA8C0233680F25954023EAD9
:10321000050304FA02F2134333604B6813F0805F36
:103220006BD0664B9A6942F001029A619B6903F088
:1032300001030193019B4FEA9C02951C604B53F8DC
:1032400025600CF00305AD000F23AB4026EA030612
:103250005C4B984226D003F58063984200F08C8046
:1032600003F58063984200F0898003F580639842FB
:1032700016D0042317E0CC680434BFE7CC680834C8
:10328000BCE7CC680C34B9E702610824B6E7002437
:10329000B4E70424B2E7061DACF108029200B3E7DC
:1032A000032300E00023AB4033430232444D45F892
:1032B00022304B6813F4801F62D0434A936843EA7C
:1032C0000E0393604B6813F4001F5FD03E4AD3682F
:1032D00043EA0E03D3604B6813F4003F5CD03A4AD4
:1032E000536843EA0E0353604B6813F4803F59D090
:1032F000354A136843EA0E0313600CF1010C0B68A6
:1033000033FA0CF254D0012202FA0CF203EA020E54
:1033100032EA0303F1D14B68122B3FF64EAF122B6A
:103320003FF66CAF01A555F823F000BFEB31000864
:10333000FB3100087D3200088F320008FD310008A3
:10334000FD310008FD310008FD310008FD310008A5
:10335000FD310008FD310008FD310008FD31000895
:10336000FD310008FD310008FD310008FD31000885
:103370007732000883320008012394E7022392E7A2
:10338000114A936823EA0E0393609BE70E4AD368C1
:1033900023EA0E03D3609EE70B4A536823EA0E0329
:1033A0005360A1E7084A136823EA0E031360A4E7F9
:1033B00002B070BD00002210000031100010024069
:1033C00000000140000801400004014083681942E8
:1033D00001D001207047002070470AB10161704799
:1033E000090401617047C36801EA030221EA03018D
:1033F00041EA02410161704782B0084B1B68084AEC
:10340000A2FB03235B0A00FB03F3019300BF019BB4
:103410005A1E0192002BF9D102B07047940000208F
:10342000D34D6210002800F0F18170B582B00446DF
:10343000036813F0010F2CD0994B5B6803F00C0369
:10344000042B1DD0964B5B6803F00C03082B12D0A5
:103450006368B3F5803F41D0002B55D103F1804321
:1034600003F504331A6822F480321A601A6822F4D1
:1034700080221A6037E08A4B5B6813F4803FE7D004
:10348000874B1B6813F4003F03D06368002B00F0E8
:10349000BF81236813F0020F75D0814B5B6813F076
:1034A0000C0F5FD07E4B5B6803F00C03082B54D0ED
:1034B0002369002B00F08A807A4B01221A60FFF703
:1034C000E5FD0546764B1B6813F0020F75D1FFF73B
:1034D000DDFD401B0228F5D903209EE1704A1368E8
:1034E00043F480331360636843B3FFF7CFFD0546B1
:1034F0006B4B1B6813F4003FCBD1FFF7C7FD401B9C
:103500006428F5D9032088E1B3F5A02F09D0644BD6
:103510001A6822F480321A601A6822F480221A6033
:10352000E1E703F18043A3F53C331A6842F48022BB
:103530001A601A6842F480321A60D4E7FFF7A6FDD9
:103540000546574B1B6813F4003FA2D0FFF79EFDC2
:10355000401B6428F5D903205FE1514B5B6813F4ED
:10356000803FA5D14E4B1B6813F0020F03D0236997
:10357000012B40F04F814A4A136823F0F803616938
:1035800043EAC1031360236813F0080F33D0A36923
:10359000002B5CD0434B0122C3F88024FFF776FD5B
:1035A00005463F4B5B6A13F0020F21D1FFF76EFD1A
:1035B000401B0228F5D903202FE1394A136823F074
:1035C000F803616943EAC1031360DCE7354B00226D
:1035D0001A60FFF75BFD0546314B1B6813F0020FC5
:1035E000D1D0FFF753FD401B0228F5D9032014E189
:1035F0000120FFF701FF236813F0040F00F096800D
:10360000274BDB6913F0805F34D1254BDA6942F038
:103610008052DA61DB6903F080530193019B01253D
:10362000214B1B6813F4807F26D0E368012B3DD02B
:10363000002B53D103F1804303F504331A6A22F0BF
:1036400001021A621A6A22F004021A6233E0154B70
:103650000022C3F88024FFF719FD0546104B5B6A72
:1036600013F0020FC7D0FFF711FD401B0228F5D958
:103670000320D2E00025D3E70B4A136843F480739C
:103680001360FFF703FD0646074B1B6813F4807FAA
:10369000CBD1FFF7FBFC801B6428F5D90320BCE0ED
:1036A0000010024000004242007000405F4A136A6E
:1036B00043F001031362E36833B3FFF7E7FC064608
:1036C0005A4B1B6A13F0020F2FD1FFF7DFFC801B50
:1036D00041F288339842F3D903209EE0052B09D0AC
:1036E000524B1A6A22F001021A621A6A22F004028C
:1036F0001A62E0E74D4B1A6A42F004021A621A6A33
:1037000042F001021A62D6E7FFF7C0FC0646474BBB
:103710001B6A13F0020F08D0FFF7B8FC801B41F2C0
:1037200088339842F3D9032077E0E5B9E369002BA9
:1037300072D03E4A526802F00C02082A56D0022B80
:1037400017D03B4B00221A66FFF7A0FC0446374B0C
:103750001B6813F0007F47D0FFF798FC001B02287E
:10376000F5D9032059E0314AD36923F08053D3615E
:10377000DCE72F4B00221A66FFF788FC05462B4B2F
:103780001B6813F0007F06D0FFF780FC401B022867
:10379000F5D9032041E0236AB3F5803F1AD02349CD
:1037A0004B6823F47413226A606A024313434B602C
:1037B0001F4B01221A66FFF769FC04461B4B1B686E
:1037C00013F0007F0ED1FFF761FC001B0228F5D932
:1037D000032022E0154A536823F40033A1680B4309
:1037E0005360DCE7002018E0002016E0012B16D023
:1037F0000E4B5B6803F48031226A914211D103F4CD
:103800007013626A93420ED1002006E001207047D7
:10381000012002E0012000E0002002B070BD012084
:10382000FBE70120F9E70120F7E700BF00100240A5
:10383000000042420F4B5B6803F00C02082A01D0E3
:103840000D487047C3F383420C49885C13F4803FF2
:103850000BD0084B5B68C3F34043094AD35C064A6C
:1038600002FB00F0B0FBF3F07047064B03FB00F0E7
:10387000704700BF0010024000127A0038A900080B
:1038800034A9000800093D00002800F0A08070B5B0
:103890000D460446524B1B6803F007038B420BD2C4
:1038A0004F4A136823F007030B431360136803F0B8
:1038B00007038B4240F08D80236813F0020F17D06E
:1038C00013F0040F04D0474A536843F4E063536095
:1038D000236813F0080F04D0424A536843F460533E
:1038E0005360404A536823F0F003A1680B435360D0
:1038F000236813F0010F31D06368012B20D0022B15
:1039000025D0384A126812F0020F64D035494A684F
:1039100022F0030213434B60FFF7B8FB0646314B1E
:103920005B6803F00C036268B3EB820F16D0FFF7FD
:10393000ADFB801B41F288339842F0D9032045E06B
:10394000284A126812F4003FE0D101203EE0254AE7
:10395000126812F0007FD9D1012037E0204B1B689C
:1039600003F00703AB420AD91D4A136823F007038B
:103970002B431360136803F00703AB422DD1236878
:1039800013F0040F06D0174A536823F4E063E1688C
:103990000B435360236813F0080F07D0114A536894
:1039A00023F46053216943EAC1035360FFF742FFE8
:1039B0000C4B5B68C3F303130B4AD35CD8400B4B2F
:1039C00018600B4B1868FFF71DFB002070BD01202D
:1039D00070470120FAE70120F8E70120F6E700BF71
:1039E000002002400010024024A90008940000209A
:1039F0009C000020014B1868704700BF9400002015
:103A000008B5FFF7F7FF044B5B68C3F30223034AD3
:103A1000D35CD84008BD00BF001002401CA90008BC
:103A200008B5FFF7E7FF044B5B68C3F3C223034A03
:103A3000D35CD84008BD00BF001002401CA900089C
:103A400010B4036A046A24F001040462846924F057
:103A5000F00C4CEA021223F00A030B43826103626A
:103A600010BC704710B4036A046A24F010040462A6
:103A7000846924F4704C4CEA023223F0A00343EA38
:103A800001138261036210BC7047836823F07003E6
:103A90000B4343F0070383607047000090F83D300C
:103AA000DBB2012B27D1022380F83D300268D368B6
:103AB00043F00103D3600368114A934210D0B3F17D
:103AC000804F0DD0A2F59432934209D002F5806266
:103AD000934205D01A6842F001021A600020704734
:103AE0009A6802F00702062A07D01A6842F001021B
:103AF0001A6000207047012070470020704700BF07
:103B0000002C0140704770477047704710B504465D
:103B100003681A6912F0020F11D0DA6812F0020F6E
:103B20000DD06FF002021A610123037703689B69CD
:103B300013F0030F70D0FFF7E6FF0023237723680D
:103B40001A6912F0040F12D0DA6812F0040F0ED0C6
:103B50006FF004021A610223237723689B6913F430
:103B6000407F5FD02046FFF7CEFF002323772368F6
:103B70001A6912F0080F12D0DA6812F0080F0ED08E
:103B80006FF008021A61042323772368DB6913F0BE
:103B9000030F4ED02046FFF7B6FF0023237723689C
:103BA0001A6912F0100F12D0DA6812F0100F0ED04E
:103BB0006FF010021A61082323772368DB6913F47E
:103BC000407F3DD02046FFF79EFF002323772368E8
:103BD0001A6912F0010F03D0DA6812F0010F36D122
:103BE00023681A6912F0800F03D0DA6812F0800F90
:103BF00034D123681A6912F0400F03D0DA6812F04A
:103C0000400F32D123681A6912F0200F03D0DA680E
:103C100012F0200F30D110BDFFF774FF2046FFF7E0
:103C200073FF8AE72046FFF76DFF2046FFF76CFF22
:103C30009BE72046FFF766FF2046FFF765FFACE7EE
:103C40002046FFF75FFF2046FFF75EFFBDE76FF0FE
:103C500001021A612046FFF759F8C1E76FF08002B0
:103C60001A61204600F039F9C3E76FF040021A618B
:103C70002046FFF74AFFC5E76FF020021A61204691
:103C800000F02AF9C7E7000003681B4A90420AD0F7
:103C9000B0F1804F07D0A2F59432904203D002F5E4
:103CA0008062904203D123F070034A681343124AA2
:103CB00090420AD0B0F1804F07D0A2F594329042E2
:103CC00003D002F58062904203D123F44073CA68A6
:103CD000134323F080034A69134303608B68C36274
:103CE0000B688362044B984202D001234361704702
:103CF0000B690363F9E700BF002C014040B310B526
:103D0000044690F83D30F3B1022384F83D3021465B
:103D100051F8040BFFF7B8FF012384F8463084F80C
:103D20003E3084F83F3084F8403084F8413084F8E5
:103D3000423084F8433084F8443084F8453084F8C5
:103D40003D30002010BD80F83C30FEF7A7FFDBE7D8
:103D50000120704710B4846824F47F4C42EA0322A7
:103D60000A4342EA0C02826010BC704790F83C3073
:103D7000012B78D010B50446012380F83C30022393
:103D800080F83D300268936823F47F4323F0770383
:103D900093600B68602B4CD023D8402B54D011D8A3
:103DA000202B03D00AD80BB1102B05D1194620685F
:103DB000FFF76BFE002028E0012026E0302BF5D035
:103DC000012022E0502B0AD1CA6849680068FFF739
:103DD00037FE50212068FFF758FE002015E0012033
:103DE00013E0B3F5805F3AD0B3F5005F14D0702BC9
:103DF00037D1CB684A6889680068FFF7ABFF226853
:103E0000936843F0770393600020012384F83D30EA
:103E1000002384F83C3010BDCB684A68896800688C
:103E2000FFF798FF2268936843F480439360002073
:103E3000EBE7CA6849680068FFF714FE6021206854
:103E4000FFF723FE0020E0E7CA6849680068FFF733
:103E5000F7FD40212068FFF718FE0020D5E700207D
:103E6000D3E70120D1E702207047000090F83C2002
:103E7000012A2CD010B40346012280F83C200222F3
:103E800080F83D2002685068946820F0700C086843
:103E900040EA0C0050601A680E4882420AD0B2F123
:103EA000804F07D0A0F59430824203D000F58060A7
:103EB000824204D124F080044968214391600122A8
:103EC00083F83D20002083F83C0010BC704702209E
:103ED000704700BF002C01407047704710B5044682
:103EE0000268136923F44053C1680B43136183686C
:103EF0000269134342691A430168CB6823F4B05343
:103F000023F00C031343CB600268536923F440731E
:103F100081690B4353610268134B9A4220D0FFF72B
:103F20006FFD024602EB820202EB820263689B0095
:103F3000B2FBF3F20D48A0FB02314909642303FBF5
:103F400011231B013233A0FB03035B0903F0F002D2
:103F500002EB011203F00F03216813448B6010BDC4
:103F6000FFF75EFD0246DDE7003801401F85EB519B
:103F70002DE9F84305460F4616469946DDF82080A0
:103F80002B681C6837EA04040CBF01240024B442E7
:103F90002DD1B8F1FF3FF3D0B8F1000F05D0FFF7F6
:103FA00075F8A0EB09004045EAD92A6802F10C0334
:103FB00053E8003F23F4D0730C3242E8003100296B
:103FC000F3D12A6802F1140353E8003F23F0010300
:103FD000143242E800310029F3D1202385F8413022
:103FE00085F84230002385F84030032000E00020AF
:103FF000BDE8F88360B310B5044690F8413013B3C0
:10400000242384F841302268D36823F40053D3601A
:104010002046FFF763FF2268136923F4904313617E
:104020002268536923F02A0353612268D36843F45A
:104030000053D36000206064202384F8413084F86A
:104040004230606310BD80F84030FEF77BFFD7E759
:10405000012070472DE9F04182B01E4690F84130B2
:10406000DBB2202B4BD104460D46904600294AD0A6
:104070000AB9012044E000234364212380F8413041
:10408000FFF704F80746A4F82480A4F82680A36864
:10409000B3F5805F02D04FF000080FE02369FBB159
:1040A0004FF000080AE038F8023B2268C3F3080327
:1040B0005360E28C92B2013A92B2E284E38C9BB2FA
:1040C0008BB100963B46002280212046FFF750FF2F
:1040D000D8B9002DE7D015F8012B23685A60E8E71E
:1040E000A8460025EAE700963B46002240212046EC
:1040F000FFF73EFF58B9202384F8413000E002204A
:1041000002B0BDE8F0810120FAE70320F8E70320C0
:10411000F6E70000024A0349034800F0C9B800BFAF
:10412000A0000020F9680008B00000200C4B416896
:1041300010B59942044601D002F0DEFBA168094B9C
:10414000994202D0204602F0D7FBE168064B994223
:1041500004D02046BDE8104002F0CEBB10BD00BF29
:10416000240900208C090020F40900202DE9F843DF
:1041700000250423304C314A3149DFF8C890DFF87C
:10418000C880324F324E116004F15C00294608228B
:10419000C4E90335C4E90055C4E90555A560656661
:1041A00000F012F904F15800C4E90749C4E909878D
:1041B000E66200F0DBF9274B2946082204F1C4002F
:1041C0006367C4E91A55C4E91E552567C4F8CC5085
:1041D000C4F8805000F0F8F804F1680304F1C0005E
:1041E000C4F88430C4E92298C4E9247600F0BEF90A
:1041F000194B294604F596700822C4F8DC30C4E94E
:104200003455C4E93855C4F8D850C4F83451C4F80A
:10421000E85000F0D9F804F1D003C4E93D87C4F8B0
:10422000F09004F59470C4F8FC60C4F8EC30BDE87C
:10423000F84300F09BB900BF240900205C0A00206D
:1042400015410008394300085D4300089D430008FC
:10425000C1430008090001001200020010B5044625
:104260000A4800F087F9636B23B9094B094A1B68B8
:10427000626323B1BDE81040044800F07DB9FFF748
:1042800075FFBDE81040014800F076B96C0A0020C7
:104290005C0A00202D410008014800F06BB900BF06
:1042A0006C0A0020014800F067B900BF6C0A0020CA
:1042B0002DE9F8434FF0000980460F461646D6E92F
:1042C0000154013D10D4A389012B08D9B4F90E3053
:1042D000013304D021464046B84749EA0009013D70
:1042E0006B1C04F16804EED13668002EE7D1484615
:1042F000BDE8F8830EB430B504466FF000459CB0BD
:104300000B4A1FAB0B49059253F8042B086802A90E
:10431000CDE9013404950795069400F057FD00227D
:10432000029B1A701CB0BDE8304003B0704700BF5C
:104330000802FFFFAC00002010B50C46B1F90E10CA
:1043400000F0BAF8002803DB236D0344236510BD99
:10435000A38923F48053A38110BD00BF2DE9F04150
:104360000C46B1F90C101F46CB05054616460BD47A
:1043700021F48051A1813B4632462846B4F90E1003
:10438000BDE8F04100F0AEB8B4F90E1002230022EF
:1043900000F07CF8B4F90C10EAE700BF10B50C4649
:1043A000B1F90E1000F072F8B4F90C30421C0EBFD7
:1043B00023F4805343F480532065A38110BD00BFD4
:1043C000B1F90E1000F050B870B5860747D0541EF2
:1043D000002A3ED00346CAB201E0013C39D303F8BB
:1043E000012B9D07F9D1032C2CD9CDB205EB052566
:1043F0000F2C1A4605EB054534D9A4F1100C2CF00E
:104400000F0603F1100EB6444FEA1C1CC2E900551A
:10441000C2E9025510327245F8D10CF1010214F0D4
:104420000C0F03EB021204F00F0C13D0ACF10403D9
:1044300023F003030433134442F8045B9342FBD19B
:104440000CF003042CB1C9B21C4403F8011BA342B5
:10445000FBD170BD64461346002CF4D1F9E7034646
:104460001446C0E7A446E1E7002238B5064D0446ED
:1044700008462A60FEF770FB431C00D038BD2B684D
:10448000002BFBD0236038BD600A002038B50C46F5
:10449000114600228446074D20462A601A4664468B
:1044A000FEF764FB431C00D038BD2B68002BFBD00B
:1044B000236038BD600A002038B50C461146002242
:1044C0008446074D20462A601A466446FEF726FBBE
:1044D000431C00D038BD2B68002BFBD0236038BDB7
:1044E000600A002038B50C46114600228446074D6C
:1044F00020462A601A466446FEF720FB431C00D083
:1045000038BD2B68002BFBD0236038BD600A00202B
:10451000014B1868704700BFAC00002070B50F4B0E
:104520000F4DAB42A3EB050607D00024B61055F89B
:10453000043B01349847A642F9D805F0E1FF094D44
:10454000094B5E1BAB424FEAA60606D0002455F885
:10455000043B01349847A642F9D870BD94AB0008DB
:1045600094AB000894AB00089CAB0008704700BFF8
:10457000704700BF704700BF704700BF024B13B1C8
:10458000024800F005B8704700000000D96B000831
:10459000002301461A46184602F0F0BB2DE9F84305
:1045A00006460820894602F02BFB0546DFF8988076
:1045B000304600F0FFFBD8F808305F6827F00307AB
:1045C000A7F11104A4EB09042C44B4FBF5F4013C5D
:1045D00005FB04F4A54208DC0021304602F0EAFAAB
:1045E000D8F808303B44984205D0304600F0E8FB4C
:1045F0000020BDE8F8833046614202F0DBFA01306A
:104600000FD0124AD8F808303F1B47F001075F600F
:10461000136830461B1B136000F0D2FB0120BDE87D
:10462000F8830021304602F0C5FAD8F80820831A32
:104630000F2BDADD43F001035360054B03491B6880
:10464000C01A0860D1E700BFE0010020740A002012
:10465000D401002000297CD0F8B50C46064600F0B5
:10466000A9FB54F8043C764FA4F1080523F001019E
:104670006818D7F808C04268844522F0030200F0A9
:104680008380DB07426000EB020C33D454F8084C03
:10469000DCF804302D1B2144AC6807F1080C64459C
:1046A00003F0010364D0D5F80CE0C4F80CE0CEF8B8
:1046B0000840002B00F0818041F001036B60016035
:1046C000B1F5007F22D20122CB0849098A407968DE
:1046D00001330A437A6057F8331007EBC302083AF4
:1046E000C5E9021247F83350CD603046BDE8F840C6
:1046F00000F066BBDCF80430DB072BD541F001038A
:10470000B1F5007F44F8043C0160DCD3B1F5206FC3
:104710004FEA512353D28B0903F1390003F13802D8
:10472000C300F818FB580838984203D161E09B6831
:10473000984204D05A6822F003028A42F7D8D86817
:10474000C5E9023085603046DD60BDE8F84000F024
:1047500037BB7047114407F1080C836863453FD0AD
:10476000C268DA60936041F001036B606950A7E7AB
:10477000002B5FD10A44D0E90213CB60996042F06C
:1047800001036B60AA50B0E70A44D90707D454F874
:10479000083CED1A1A44D5E90213CB60996042F047
:1047A00001036B60274BBD601B6893429DD8264B6D
:1047B00030461968FFF7F2FE97E71144CDE7142B56
:1047C00008D9542B1DD80B0B03F16F0003F16E02B7
:1047D000C300A6E703F15C0003F15B02C300A0E79E
:1047E00041F00103C7E90455C5E902CC6B6069508B
:1047F0007BE70121921001FA02F279680A437A609C
:104800009EE7B3F5AA7F06D8CB0B03F1780003F13E
:104810007702C30085E740F25452934206D88B0CCE
:1048200003F17D0003F17C02C3007AE74FF47E734D
:104830007E2276E741F001036B60016055E700BF1F
:10484000E0010020D8010020A40A00202DE9F04F4B
:1048500001F10B05162D064683B024D8102900F26D
:10486000AD8000F0A7FA102518234FF0020CB84FC6
:104870003B445C68A3F10802944200F01D8130467D
:104880006368E268A16823F00303CA60234491606F
:104890005A68083442F001025A6000F091FA20464A
:1048A00003B0BDE8F08F35F0070500F18780A9421D
:1048B00000F2848000F07EFAB5F5FC7FC0F06F81D5
:1048C0006B0A7FD0042B00F21E81AB0903F1390C77
:1048D00003F1380E4FEACC009D4F38444468083845
:1048E000A04207D10DE0002AE16880F2DF80884213
:1048F00007D00C46636823F003035A1B0F2AF2DD2E
:10490000F446DFF850823C69444500F0BC8063689F
:1049100023F00309A9EB05030F2B00F34581002BBE
:10492000C7E9048880F22F81B9F5007FD7F804E049
:1049300080F0C98001234FEAD9014FEA591919447F
:1049400003FA09F357F831204EEA030E07EBC103CF
:10495000083BA260E360C7F804E047F83140D46048
:1049600001204FEAAC039840704532D810EA0E0F90
:1049700007D12CF0030C400010EA0E0F0CF1040CD0
:10498000F9D007EBCC0AD646E146DEF80C300BE056
:1049900059681C4621F003014A1B0F2ADB6800F30B
:1049A000BF80002A80F2E2809E45F1D109F1010921
:1049B00019F0030F0EF1080EE7D11FE10C2333604D
:1049C00000246CE74FF400704FF0400C4FF03F0EA6
:1049D00082E7BC68636823F00309A94503D3A9EB08
:1049E00005030F2B52DC5C4B08201B6803F11008F9
:1049F00004EB0903009302F003F9584A8346136855
:104A0000A844013305D008F1FF388044434203EA4B
:104A100008084146304602F0CDF8B0F1FF3F82462B
:104A20004E4A00F0DC8004EB0903834200F2D5809B
:104A30004B4B0BF1FF31186840448446186040F03E
:104A4000FB801AEA010F40F0F780D7F808A0C844AD
:104A500048F00102CAF804205446424B19688142CA
:104A600038BF1860404B1968814238BF186022F087
:104A70000308A845A8EB050301D30F2B06DC30463D
:104A800000F09EF99CE7D7F804E069E7621943F06B
:104A9000010345F0010565603046BA600834536093
:104AA00000F08EF9204603B0BDE8F08FA2683046D2
:104AB000D16023448A60EBE6DC68A3427FF4DFAE7A
:104AC0000CF1020C1DE7B9F5206F4FEA59227DD396
:104AD000142A00F2118102F15C03DB005B32F91849
:104AE000FB580839994203D1ECE09B68994204D005
:104AF0005A6822F003024A45F7D8D968C4E902315E
:104B00008C60DC602CE7142B6CD9542B00F2FD80F8
:104B10002B0B03F16F0C03F16E0E4FEACC00DBE6BA
:104B2000D4F808C03046661945F001056560CCF838
:104B30000C30C3F808C042F00103C7E90466C6E9B7
:104B400002887360625000F03BF90834A7E600BFAA
:104B5000E0010020E8010020A40A0020D401002088
:104B6000740A0020A00A00209C0A002021444A6800
:104B7000304642F001024A6054F8082FD3609A6030
:104B800000F01EF98BE6A144D9F80430304643F01A
:104B90000103C9F8043000F013F908347FE64FEA46
:104BA000D50C05F1080362E6621943F0010145F0F6
:104BB000010565603046C7E90422C2E902885160F8
:104BC00044F8093000F0FCF8083468E64FEA99121E
:104BD00002F13903DB00383281E7BC4224D0BC68E3
:104BE000626844E703F15C0C03F15B0E4FEACC0012
:104BF00072E65AF80839534540F0D8801CF0030F8C
:104C00000CF1FF3CF5D17B6823EA00037B60400098
:104C100098423FF6DEAE18B9DBE6400009F1040920
:104C20001842FAD0CC46ACE6614B0BF1FF31186864
:104C300008EB000CC3F800C01068013070D004EB22
:104C40000902AAEB020262441A601AF00702CDE9D7
:104C5000002340D0C2F108029244D04408EA010087
:104C60005A44121A02EA010B5946304601F0A2FFDB
:104C7000421C019B71D0A0EB0A0000EB0B081868E6
:104C800048F001025844BC42C7F808A01860CAF8AE
:104C900004203FF4E1AEB9F10F0F44D94FF0050CF9
:104CA0006168A9F10C0222F0070201F00101114331
:104CB00061600F2A04EB0201C1E901CC55D8DAF892
:104CC0000420C9E60120921000FA02F24EEA020E18
:104CD000C7F804E012E70AEB08020A40ABEB020255
:104CE00002EA010B5946304601F064FF431C019B68
:104CF000C1D1DDF800B0C2E7542A18D84FEA193202
:104D000002F16F03DB006E32E9E6B3F5AA7F18D833
:104D1000EB0B03F1780C03F1770E4FEACC00DBE5E7
:104D2000C2F800A091E70123CAF80430A7E6B2F563
:104D3000AA7F25D84FEAD93202F17803DB00773217
:104D4000CDE640F25452934225D8AB0C03F17D0CD2
:104D500003F17C0E4FEACC00BEE5009A4FF0000B49
:104D6000083A9044A8EB0A0889E7304604F10801A4
:104D70000093FFF76FFC009BD7F808A018689EE728
:104D800040F254539A420DD84FEA994202F17D0302
:104D9000DB007C32A3E64FF47E704FF07F0C4FF0C7
:104DA0007E0E99E54FF47E737E2298E67B682EE7AF
:104DB000740A00200148FFF7DDBB00BF640A002031
:104DC0000148FFF7D9BB00BF640A00202DE9F04F6E
:104DD000DDB00C4691460D910F93834601F0E6FE3F
:104DE000036818461A9301F065FF08221890002105
:104DF0002CA8FFF7E9FAA389180603D52369002B2D
:104E000000F01587002300249E46CDE931330023AE
:104E100033AACDE91634DA4614464D46CDE91BEEE9
:104E20003092CDF864E0CDF880E0CDF874E0CDF8B4
:104E300028E0CDF848E02F466E4BD3F8E46001F04F
:104E4000AFFE0DF1B00C03463A46504628A9CDF806
:104E500000C0B047002800F09F80C0F29580289BDA
:104E6000252B01D00744E7E7B7EB0508064640F0DD
:104E7000978000224FF0FF33934609937B787E1C86
:104E80008DF897200B9299460136A9F120035A2BF1
:104E900000F2B280DFE813F0F302B000B000EF02DE
:104EA000B000B000B000FD02B000B0006A003502F2
:104EB000B0002702D202B000CE025B005B005B00B4
:104EC0005B005B005B005B005B005B00B000B00060
:104ED000B000B000B000B000B0002801B000AA01DE
:104EE0003E02280128012801B000B000B000B00047
:104EF0003A02B000B000A802B000B000B000D0018B
:104F0000B000BC02B000B0008A06B000B000B00033
:104F1000B000B000B000B000B0002801B000AA019D
:104F200001022801280128012B0201027400B000AF
:104F30006402B0005502AF066E027400B000D001EA
:104F40007200AC06B000B000B206B00072000022E1
:104F5000A9F1300316F8019B02EB820203EB420237
:104F6000A9F13003092BF5D90B928EE70F9B53F86B
:104F7000042B002A0B920F93C0F2B281337882E7A0
:104F800033784BF0200B7EE7082200212CA8FFF796
:104F90001BFA012007444FE7B7EB0508064610D07F
:104FA000329BC4E9005843443293319B0133072BB1
:104FB000319315DC08340A9B43440A93002E7FF496
:104FC00058AF329B002B41F05E810D9B9B8903F013
:104FD0004003002B41F080830A985DB0BDE8F08F5C
:104FE00050460D9930AA03F003FB0028EDD133ACF5
:104FF000E1E700BFE80500201096B9F1000FE0D00E
:10500000012300228DF80C91069343AD8DF8972073
:105010000C93CDE913220E92099211921BF0020318
:1050200002D00699023106911BF08408329E05D108
:105030000B9906980F1A002F00F39B806AB101228A
:105040006260319A013601320DF19701072A3296DA
:105050003192216000F3D883083463B10223636086
:10506000319B0236013326AA072B329631932260F8
:1050700000F3BF830834B8F1800F00F0BF82099BB2
:105080000C9A9F1A002F00F3F9821BF4807F40F0E6
:105090001E820C9B25601E446360319B3296013357
:1050A000072B319300F33F8308341BF0040F05D026
:1050B0000B9B069A9D1A002D00F3B383DDE90A329B
:1050C00006998A42ACBF9B185B180A93002E40F0E9
:1050D0000883002331930E9B1BB150460E99FFF7B6
:1050E000B9FA33AC109DA6E60F9B1096073323F058
:1050F0000703F3E802670F9327F000431F931E9600
:105100004FF0FF32DDE91E01B24BCDE91667FBF728
:10511000EBFC002840F0F484DDE91E014FF0FF3283
:10512000AC4BFBF7C3FC002840F0EA8400220023CC
:1051300030463946FBF7B0FC002840F0B2879DF8B6
:10514000972000210320A44DA44B2BF0800B0E913F
:105150000690B9F1470FD8BF1D46CDE9131109914B
:105160000C901191002A3FF459AF069B013306932E
:1051700054E7102F319A41F30D82DFF864C22146C3
:1051800030460D9C2E46CDF854C06546219304E070
:10519000103F102F01F1080116DD102301321030ED
:1051A000072ACDE931200D604B60F1DD21465046E4
:1051B00030AA03F01DFA002840F09B82DDE931207F
:1051C000103F102F33A9E8DC35460C460646219BDC
:1051D000013215993E44072ACDE9312621606760E6
:1051E00000F381869DF89720083427E70F9BB9F1DB
:1051F000430F109603F1040603D01BF0100F00F0CC
:105200000185082200212EA8FFF7DEF80F9A43AD92
:105210002EAB29465046126803F0B8F90346013315
:105220000C9001F054820C9B23EAE3730693002256
:105230000F968DF89720ECE600230F9F109657F8F5
:10524000045B8DF89730002D00F00085B9F1530F05
:1052500000F094861BF01003119340F08F86099B99
:10526000002BC1F21B801A462846119901F0D6FC8A
:105270000E90002801F081820E9B11995B1B0C930C
:1052800023EAE3734FF07309CDE913119DF89720DA
:105290000F97099106930E9164E71BF0200F10966B
:1052A0003ED00F9B073323F007031846596850F888
:1052B000083B0A460F900029C0F2CA8309990029C9
:1052C000C0F2888253EA02012BF0800740F083820B
:1052D000099A002A40F08482BB460C925CAD64E1DE
:1052E0000B9B5B420B9333784BF0040BCBE533788D
:1052F000682B03BF73784BF4007B01364BF0400BF7
:10530000C1E52B238DF897303378BCE533784BF02B
:10531000080BB8E54BF0100B1BF0200F1096C0D116
:105320000F9A1BF0100F52F8043B0F9240F0C2830B
:105330001BF0400F00F0BA8343F3C03211461BB29A
:10534000B9E71BF0200F109600F0C5830F9B0A9A57
:105350001B681A60D2175A600F9B04330F93C1E683
:1053600033786C2B03BF73784BF0200B01364BF076
:10537000100B88E547F630030F9AADF8983052F8D5
:10538000043B02210F924FF0780900221548109635
:105390004BF0020719900020099D8DF89700002D11
:1053A000C0F2EC8053EA020027F0800B40F0E58069
:1053B000002D40F0D285002940F0538317F00103FF
:1053C0000C9300F0718330230DF26F158DF86F315F
:1053D000EBE000BFFFFFEF7F78A7000874A700088D
:1053E00058A9000884A7000810964BF0100B1BF07A
:1053F000200200F012830F9B073323F007031946A6
:105400005A6851F8083B0F9100212BF48067C2E7DE
:1054100010964BF0100717F0200200F00B830F9B43
:105420000121073323F0070318465A6850F8083B58
:105430000F90B0E733784BF0800B24E5314611F83C
:10544000019BB9F12A0F01F02882A9F13003092B41
:1054500098BF002201F2A28011F8019B02EB8202A8
:1054600003EB4202A9F13003092BF5D942EAE273BA
:105470000E46099309E533784BF0010B03E59DF8DF
:1054800097203378002A7FF4FEAC20228DF89720F5
:10549000F9E4504601F08AFB436818461D9301F079
:1054A00009FC20900746504601F080FB83681B935F
:1054B000002F3FF463AD1B9A3378002A3FF4E3AC2E
:1054C0001278002A3FF4DFAC4BF4806BDBE4B9F1D7
:1054D000650F40F33781DDE9160100220023FBF759
:1054E000D1FA002800F0D88101236360319B934AF0
:1054F00001330136072B32963193226000F3328557
:105500000834279B129A934280F2C982189B1A9AF8
:105510001E44C4E90023319B32960133072B31939B
:1055200000F37A830834129B5D1E002D7FF7BDAD1A
:10553000102D319B40F3EB80DFF804921027DDF84B
:105540003480CDF8549004E00834103D102D40F321
:10555000E08001331036072BC4E90097CDE93136DE
:10556000F2DD4146504630AA03F042F8002840F0F0
:10557000C080DDE9313633ACE7E75F46012900F052
:105580002A8102295CAD1ED1199803F00F01415CFC
:105590001B0943EA0273120905F8011D53EA0201CF
:1055A000F3D1BB465CAB5B1B0C93099A0C990023AF
:1055B0008A42B8BF0A46CDE9133306920E939DF88E
:1055C00097201193CEE503F00701DB0843EA42730D
:1055D000D208303153EA0206284605F8011DF2D1FF
:1055E000FB07DED53029DCD03023023805F8013C3A
:1055F0005CAB1B1ABB4605460C93D6E70B9B069A81
:105600009F1A002F7FF73BAD102F319B41F35B803A
:105610004B48224631464FF0100806460D9C159027
:1056200004E0103F102F02F1080214DD01331031A5
:10563000072BC2E90068CDE93131F2DD2146504641
:1056400030AA02F0D5FF002853D1DDE93131103FF7
:10565000102F33AAEADC14460E460133159A3E4455
:10566000072BCDE931362260676000F3C084099BC7
:105670000C9A08349F1A002F7FF707AD304A102F7D
:10568000319B159221DD32464FF010082E460D9DBC
:1056900004E0103F102F04F1080414DD0133284901
:1056A0001032072BC4E90018CDE93132F1DD29466B
:1056B000504630AA02F09CFFD8B9DDE93132103FE4
:1056C000102F33ACEADC354616460133159A3E44BA
:1056D000072BCDE931362260676000F392810834F0
:1056E000D3E450460D9930AA02F082FF00283FF41F
:1056F000F0ACD3460E9B002B3FF467AC58460E9996
:10570000FEF7A8FF0D9B9B8903F0400361E40C4A60
:105710001592159A01332E44072B22606560CDE95E
:1057200031367FF7C1AC50460D9930AA02F060FFC8
:105730000028DED1329E33ACB7E400BFB4A7000826
:1057400048A90008129B319F012B06F1010607F1C1
:10575000010704F1080940F310810123072FCDE967
:1057600031762560636000F38081189B01371A9AB7
:105770001E44072FC9E90023CDE9317600F3828169
:1057800009F10809129B0022DDE916015C1E0023C5
:10579000FBF778F9002840F00981013701352644EC
:1057A000072FCDE93176C9F80050C9F8044000F35D
:1057B000F08009F108091C9B01371E44C9F8043028
:1057C000072F2AABCDE93176C9F80030ABDC09F1FF
:1057D00008046AE45F460A2B72F1000180F0258319
:1057E00030338DF86F310123BB460C930DF26F15EA
:1057F000DBE650460D9930AA02F0FAFE00287FF44D
:1058000078AF329E33AC36E450460D9930AA1593EA
:1058100002F0EEFE00287FF46CAF329E159B33AC95
:105820001BE4102D319B40F33187DFF8CC82102729
:10583000DDF83490CDF8548004E0103D102D04F1D3
:10584000080415DD01331036072BC4E90087CDE9C4
:105850003136F2DD4946504630AA02F0C9FE002832
:105860007FF447AFDDE93136103D102D33ACE9DC74
:105870000133159A2E44072BC4E90025CDE93136B2
:105880007FF71CAC50460D9930AA02F0B1FE0028FB
:105890007FF42FAF329E11E42799002940F3338320
:1058A000DDE911839845A8BF9846B8F1000F0ADDDD
:1058B000319B46440133072BC4E90058329631939B
:1058C00000F33E860834119FB8F1000FA8BFA7EB84
:1058D0000807002F00F3CB81DDF844901BF4806FA4
:1058E000A94440F0EA81279B129A9342C0F2718248
:1058F0001BF0010F40F06D82129AAF18A7EB090759
:10590000D51AAF42A8BF2F46002F0BDD319B3E4476
:105910000133072BC4F8009067603296319300F38F
:1059200085860834002FA8BFED1B002D7FF7BDAB87
:10593000102D319B7FF7EBAEDFF8C0911027DDF81B
:105940003480CDF8549004E00834103D102D7FF7DA
:10595000E0AE01331036072BC4E90097CDE93136AC
:10596000F2DD4146504630AA02F042FE00287FF4A4
:10597000C0AEDDE9313633ACE7E71BF0010F7FF451
:10598000ECAE0123072FCDE93176256063607FF708
:1059900012AF50460D9930AA02F02AFE00287FF47B
:1059A000A8AEDDE931760DF1CC0904E7129B012B9D
:1059B0007FF701AF112B40F37F87504BCDF824B018
:1059C00010259B46DDF83480159305E009F10809A0
:1059D000103C102C40F33C8301371036072FC9E9E7
:1059E00000B5CDE93176F1DD4146504630AA02F0EE
:1059F000FFFD00287FF47DAEDDE931760DF1CC09A5
:105A0000E6E750460D9930AA02F0F2FD00287FF437
:105A100070AE329E33ACFFF738BB0F991BF010000D
:105A200051F8043B55D11BF040054ED002460F9172
:105A30009BB2E9E40F9917F0100051F8043B41D1F3
:105A400017F040053AD00F91024601219BB2A2E423
:105A50005B425F464FF02D004FF0010162EB4202C6
:105A60009AE4099B5CAD0C939FE550460D9930AAD2
:105A700002F0BEFD00287FF43CAEDDE931760DF189
:105A8000CC0972E650460D9930AA02F0B1FD00280B
:105A90007FF42FAEDDE931760DF1CC0972E61BF013
:105AA000010F3FF402AB31E55CAD7EE51BF4007FF6
:105AB00040F04F83DA171146FFF7FDBB17F4007271
:105AC00040F052830F91012165E41BF4007240F015
:105AD00046830F9198E41BF0100F40F094821BF066
